{
  "_format": "hh-sol-artifact-1",
  "contractName": "Domains",
  "sourceName": "contracts/Domains.sol",
  "abi": [
    {
      "inputs": [
        {
          "internalType": "string",
          "name": "_tld",
          "type": "string"
        }
      ],
      "stateMutability": "payable",
      "type": "constructor"
    },
    {
      "inputs": [],
      "name": "AlreadyRegistered",
      "type": "error"
    },
    {
      "inputs": [
        {
          "internalType": "string",
          "name": "name",
          "type": "string"
        }
      ],
      "name": "InvalidName",
      "type": "error"
    },
    {
      "inputs": [],
      "name": "Unauthorized",
      "type": "error"
    },
    {
      "anonymous": false,
      "inputs": [
        {
          "indexed": true,
          "internalType": "address",
          "name": "owner",
          "type": "address"
        },
        {
          "indexed": true,
          "internalType": "address",
          "name": "approved",
          "type": "address"
        },
        {
          "indexed": true,
          "internalType": "uint256",
          "name": "tokenId",
          "type": "uint256"
        }
      ],
      "name": "Approval",
      "type": "event"
    },
    {
      "anonymous": false,
      "inputs": [
        {
          "indexed": true,
          "internalType": "address",
          "name": "owner",
          "type": "address"
        },
        {
          "indexed": true,
          "internalType": "address",
          "name": "operator",
          "type": "address"
        },
        {
          "indexed": false,
          "internalType": "bool",
          "name": "approved",
          "type": "bool"
        }
      ],
      "name": "ApprovalForAll",
      "type": "event"
    },
    {
      "anonymous": false,
      "inputs": [
        {
          "indexed": false,
          "internalType": "uint256",
          "name": "_fromTokenId",
          "type": "uint256"
        },
        {
          "indexed": false,
          "internalType": "uint256",
          "name": "_toTokenId",
          "type": "uint256"
        }
      ],
      "name": "BatchMetadataUpdate",
      "type": "event"
    },
    {
      "anonymous": false,
      "inputs": [
        {
          "indexed": false,
          "internalType": "uint256",
          "name": "_tokenId",
          "type": "uint256"
        }
      ],
      "name": "MetadataUpdate",
      "type": "event"
    },
    {
      "anonymous": false,
      "inputs": [
        {
          "indexed": true,
          "internalType": "address",
          "name": "from",
          "type": "address"
        },
        {
          "indexed": true,
          "internalType": "address",
          "name": "to",
          "type": "address"
        },
        {
          "indexed": true,
          "internalType": "uint256",
          "name": "tokenId",
          "type": "uint256"
        }
      ],
      "name": "Transfer",
      "type": "event"
    },
    {
      "inputs": [
        {
          "internalType": "address",
          "name": "to",
          "type": "address"
        },
        {
          "internalType": "uint256",
          "name": "tokenId",
          "type": "uint256"
        }
      ],
      "name": "approve",
      "outputs": [],
      "stateMutability": "nonpayable",
      "type": "function"
    },
    {
      "inputs": [
        {
          "internalType": "address",
          "name": "owner",
          "type": "address"
        }
      ],
      "name": "balanceOf",
      "outputs": [
        {
          "internalType": "uint256",
          "name": "",
          "type": "uint256"
        }
      ],
      "stateMutability": "view",
      "type": "function"
    },
    {
      "inputs": [
        {
          "internalType": "string",
          "name": "",
          "type": "string"
        }
      ],
      "name": "domains",
      "outputs": [
        {
          "internalType": "address",
          "name": "",
          "type": "address"
        }
      ],
      "stateMutability": "view",
      "type": "function"
    },
    {
      "inputs": [],
      "name": "getAllNames",
      "outputs": [
        {
          "internalType": "string[]",
          "name": "",
          "type": "string[]"
        }
      ],
      "stateMutability": "view",
      "type": "function"
    },
    {
      "inputs": [
        {
          "internalType": "uint256",
          "name": "tokenId",
          "type": "uint256"
        }
      ],
      "name": "getApproved",
      "outputs": [
        {
          "internalType": "address",
          "name": "",
          "type": "address"
        }
      ],
      "stateMutability": "view",
      "type": "function"
    },
    {
      "inputs": [
        {
          "internalType": "address",
          "name": "owner",
          "type": "address"
        },
        {
          "internalType": "address",
          "name": "operator",
          "type": "address"
        }
      ],
      "name": "isApprovedForAll",
      "outputs": [
        {
          "internalType": "bool",
          "name": "",
          "type": "bool"
        }
      ],
      "stateMutability": "view",
      "type": "function"
    },
    {
      "inputs": [],
      "name": "isOwner",
      "outputs": [
        {
          "internalType": "bool",
          "name": "",
          "type": "bool"
        }
      ],
      "stateMutability": "view",
      "type": "function"
    },
    {
      "inputs": [],
      "name": "name",
      "outputs": [
        {
          "internalType": "string",
          "name": "",
          "type": "string"
        }
      ],
      "stateMutability": "view",
      "type": "function"
    },
    {
      "inputs": [
        {
          "internalType": "uint256",
          "name": "",
          "type": "uint256"
        }
      ],
      "name": "names",
      "outputs": [
        {
          "internalType": "string",
          "name": "",
          "type": "string"
        }
      ],
      "stateMutability": "view",
      "type": "function"
    },
    {
      "inputs": [],
      "name": "owner",
      "outputs": [
        {
          "internalType": "address payable",
          "name": "",
          "type": "address"
        }
      ],
      "stateMutability": "view",
      "type": "function"
    },
    {
      "inputs": [
        {
          "internalType": "uint256",
          "name": "tokenId",
          "type": "uint256"
        }
      ],
      "name": "ownerOf",
      "outputs": [
        {
          "internalType": "address",
          "name": "",
          "type": "address"
        }
      ],
      "stateMutability": "view",
      "type": "function"
    },
    {
      "inputs": [
        {
          "internalType": "string",
          "name": "name",
          "type": "string"
        }
      ],
      "name": "price",
      "outputs": [
        {
          "internalType": "uint256",
          "name": "",
          "type": "uint256"
        }
      ],
      "stateMutability": "pure",
      "type": "function"
    },
    {
      "inputs": [
        {
          "internalType": "string",
          "name": "",
          "type": "string"
        }
      ],
      "name": "records",
      "outputs": [
        {
          "internalType": "string",
          "name": "",
          "type": "string"
        }
      ],
      "stateMutability": "view",
      "type": "function"
    },
    {
      "inputs": [
        {
          "internalType": "string",
          "name": "name",
          "type": "string"
        }
      ],
      "name": "register",
      "outputs": [],
      "stateMutability": "payable",
      "type": "function"
    },
    {
      "inputs": [
        {
          "internalType": "address",
          "name": "from",
          "type": "address"
        },
        {
          "internalType": "address",
          "name": "to",
          "type": "address"
        },
        {
          "internalType": "uint256",
          "name": "tokenId",
          "type": "uint256"
        }
      ],
      "name": "safeTransferFrom",
      "outputs": [],
      "stateMutability": "nonpayable",
      "type": "function"
    },
    {
      "inputs": [
        {
          "internalType": "address",
          "name": "from",
          "type": "address"
        },
        {
          "internalType": "address",
          "name": "to",
          "type": "address"
        },
        {
          "internalType": "uint256",
          "name": "tokenId",
          "type": "uint256"
        },
        {
          "internalType": "bytes",
          "name": "data",
          "type": "bytes"
        }
      ],
      "name": "safeTransferFrom",
      "outputs": [],
      "stateMutability": "nonpayable",
      "type": "function"
    },
    {
      "inputs": [
        {
          "internalType": "address",
          "name": "operator",
          "type": "address"
        },
        {
          "internalType": "bool",
          "name": "approved",
          "type": "bool"
        }
      ],
      "name": "setApprovalForAll",
      "outputs": [],
      "stateMutability": "nonpayable",
      "type": "function"
    },
    {
      "inputs": [
        {
          "internalType": "string",
          "name": "name",
          "type": "string"
        },
        {
          "internalType": "string",
          "name": "record",
          "type": "string"
        }
      ],
      "name": "setRecord",
      "outputs": [],
      "stateMutability": "nonpayable",
      "type": "function"
    },
    {
      "inputs": [
        {
          "internalType": "bytes4",
          "name": "interfaceId",
          "type": "bytes4"
        }
      ],
      "name": "supportsInterface",
      "outputs": [
        {
          "internalType": "bool",
          "name": "",
          "type": "bool"
        }
      ],
      "stateMutability": "view",
      "type": "function"
    },
    {
      "inputs": [],
      "name": "symbol",
      "outputs": [
        {
          "internalType": "string",
          "name": "",
          "type": "string"
        }
      ],
      "stateMutability": "view",
      "type": "function"
    },
    {
      "inputs": [],
      "name": "tld",
      "outputs": [
        {
          "internalType": "string",
          "name": "",
          "type": "string"
        }
      ],
      "stateMutability": "view",
      "type": "function"
    },
    {
      "inputs": [
        {
          "internalType": "uint256",
          "name": "tokenId",
          "type": "uint256"
        }
      ],
      "name": "tokenURI",
      "outputs": [
        {
          "internalType": "string",
          "name": "",
          "type": "string"
        }
      ],
      "stateMutability": "view",
      "type": "function"
    },
    {
      "inputs": [
        {
          "internalType": "address",
          "name": "from",
          "type": "address"
        },
        {
          "internalType": "address",
          "name": "to",
          "type": "address"
        },
        {
          "internalType": "uint256",
          "name": "tokenId",
          "type": "uint256"
        }
      ],
      "name": "transferFrom",
      "outputs": [],
      "stateMutability": "nonpayable",
      "type": "function"
    },
    {
      "inputs": [
        {
          "internalType": "string",
          "name": "name",
          "type": "string"
        }
      ],
      "name": "valid",
      "outputs": [
        {
          "internalType": "bool",
          "name": "",
          "type": "bool"
        }
      ],
      "stateMutability": "pure",
      "type": "function"
    },
    {
      "inputs": [],
      "name": "withdraw",
      "outputs": [],
      "stateMutability": "nonpayable",
      "type": "function"
    }
  ],
  "bytecode": "0x6080604052604051806108a0016040528061086b81526020016200510c61086b9139600a908051906020019062000038929190620002fd565b506040518060400160405280600d81526020017f3c2f746578743e3c2f7376673e00000000000000000000000000000000000000815250600b908051906020019062000086929190620002fd565b5060405162005977380380620059778339818101604052810190620000ac919062000556565b6040518060400160405280601281526020017f4e696e6a61204e616d65205365727669636500000000000000000000000000008152506040518060400160405280600381526020017f4e4e530000000000000000000000000000000000000000000000000000000000815250816000908051906020019062000130929190620002fd565b50806001908051906020019062000149929190620002fd565b50505033600860006101000a81548173ffffffffffffffffffffffffffffffffffffffff021916908373ffffffffffffffffffffffffffffffffffffffff1602179055508060099080519060200190620001a5929190620002fd565b50620001f26040518060400160405280601881526020017f2573206e616d652073657276696365206465706c6f796564000000000000000081525082620001f960201b620018f81760201c565b50620006d3565b6200029b82826040516024016200021292919062000604565b6040516020818303038152906040527f4b5c4277000000000000000000000000000000000000000000000000000000007bffffffffffffffffffffffffffffffffffffffffffffffffffffffff19166020820180517bffffffffffffffffffffffffffffffffffffffffffffffffffffffff83818316178352505050506200029f60201b60201c565b5050565b620002c581620002c0620002c860201b6200199417620002e960201b60201c565b60201c565b50565b60006a636f6e736f6c652e6c6f679050600080835160208501845afa505050565b6200038e60201b62002ec217819050919050565b8280546200030b906200066e565b90600052602060002090601f0160209004810192826200032f57600085556200037b565b82601f106200034a57805160ff19168380011785556200037b565b828001600101855582156200037b579182015b828111156200037a5782518255916020019190600101906200035d565b5b5090506200038a91906200039a565b5090565b62000398620006a4565b565b5b80821115620003b55760008160009055506001016200039b565b5090565b6000604051905090565b600080fd5b600080fd5b600080fd5b600080fd5b6000601f19601f8301169050919050565b7f4e487b7100000000000000000000000000000000000000000000000000000000600052604160045260246000fd5b6200042282620003d7565b810181811067ffffffffffffffff82111715620004445762000443620003e8565b5b80604052505050565b600062000459620003b9565b905062000467828262000417565b919050565b600067ffffffffffffffff8211156200048a5762000489620003e8565b5b6200049582620003d7565b9050602081019050919050565b60005b83811015620004c2578082015181840152602081019050620004a5565b83811115620004d2576000848401525b50505050565b6000620004ef620004e9846200046c565b6200044d565b9050828152602081018484840111156200050e576200050d620003d2565b5b6200051b848285620004a2565b509392505050565b600082601f8301126200053b576200053a620003cd565b5b81516200054d848260208601620004d8565b91505092915050565b6000602082840312156200056f576200056e620003c3565b5b600082015167ffffffffffffffff81111562000590576200058f620003c8565b5b6200059e8482850162000523565b91505092915050565b600081519050919050565b600082825260208201905092915050565b6000620005d082620005a7565b620005dc8185620005b2565b9350620005ee818560208601620004a2565b620005f981620003d7565b840191505092915050565b60006040820190508181036000830152620006208185620005c3565b90508181036020830152620006368184620005c3565b90509392505050565b7f4e487b7100000000000000000000000000000000000000000000000000000000600052602260045260246000fd5b600060028204905060018216806200068757607f821691505b602082108114156200069e576200069d6200063f565b5b50919050565b7f4e487b7100000000000000000000000000000000000000000000000000000000600052605160045260246000fd5b614a2980620006e36000396000f3fe6080604052600436106101665760003560e01c806370a08231116100d1578063b88d4fde1161008a578063e985e9c511610064578063e985e9c514610574578063f2c298be146105b1578063fb825e5f146105cd578063fe2c6198146105f857610166565b8063b88d4fde146104e5578063c1880a981461050e578063c87b56dd1461053757610166565b806370a08231146103c15780638da5cb5b146103fe5780638f32d59b1461042957806395d89b41146104545780639791c0971461047f578063a22cb465146104bc57610166565b80632d551432116101235780632d5514321461029f5780633ccfd60b146102ca57806342842e0e146102e15780634622ab031461030a578063541e771d146103475780636352211e1461038457610166565b806301ffc9a71461016b57806306fdde03146101a8578063081812fc146101d3578063095ea7b31461021057806323b872dd146102395780632644923514610262575b600080fd5b34801561017757600080fd5b50610192600480360381019061018d9190613061565b610635565b60405161019f91906130a9565b60405180910390f35b3480156101b457600080fd5b506101bd610696565b6040516101ca919061315d565b60405180910390f35b3480156101df57600080fd5b506101fa60048036038101906101f591906131b5565b610728565b6040516102079190613223565b60405180910390f35b34801561021c57600080fd5b506102376004803603810190610232919061326a565b61076e565b005b34801561024557600080fd5b50610260600480360381019061025b91906132aa565b610886565b005b34801561026e57600080fd5b5061028960048036038101906102849190613432565b6108e6565b6040516102969190613223565b60405180910390f35b3480156102ab57600080fd5b506102b461092f565b6040516102c1919061315d565b60405180910390f35b3480156102d657600080fd5b506102df6109bd565b005b3480156102ed57600080fd5b50610308600480360381019061030391906132aa565b610a83565b005b34801561031657600080fd5b50610331600480360381019061032c91906131b5565b610aa3565b60405161033e919061315d565b60405180910390f35b34801561035357600080fd5b5061036e60048036038101906103699190613432565b610b43565b60405161037b919061315d565b60405180910390f35b34801561039057600080fd5b506103ab60048036038101906103a691906131b5565b610bf9565b6040516103b89190613223565b60405180910390f35b3480156103cd57600080fd5b506103e860048036038101906103e3919061347b565b610c80565b6040516103f591906134b7565b60405180910390f35b34801561040a57600080fd5b50610413610d38565b60405161042091906134f3565b60405180910390f35b34801561043557600080fd5b5061043e610d5e565b60405161044b91906130a9565b60405180910390f35b34801561046057600080fd5b50610469610db6565b604051610476919061315d565b60405180910390f35b34801561048b57600080fd5b506104a660048036038101906104a1919061356e565b610e48565b6040516104b391906130a9565b60405180910390f35b3480156104c857600080fd5b506104e360048036038101906104de91906135e7565b610efc565b005b3480156104f157600080fd5b5061050c600480360381019061050791906136c8565b610f12565b005b34801561051a57600080fd5b506105356004803603810190610530919061374b565b610f74565b005b34801561054357600080fd5b5061055e600480360381019061055991906131b5565b61104f565b60405161056b919061315d565b60405180910390f35b34801561058057600080fd5b5061059b600480360381019061059691906137cc565b611162565b6040516105a891906130a9565b60405180910390f35b6105cb60048036038101906105c6919061356e565b6111f6565b005b3480156105d957600080fd5b506105e2611674565b6040516105ef9190613918565b60405180910390f35b34801561060457600080fd5b5061061f600480360381019061061a919061356e565b611852565b60405161062c91906134b7565b60405180910390f35b6000634906490660e01b7bffffffffffffffffffffffffffffffffffffffffffffffffffffffff1916827bffffffffffffffffffffffffffffffffffffffffffffffffffffffff1916148061068f575061068e826119b5565b5b9050919050565b6060600080546106a590613969565b80601f01602080910402602001604051908101604052809291908181526020018280546106d190613969565b801561071e5780601f106106f35761010080835404028352916020019161071e565b820191906000526020600020905b81548152906001019060200180831161070157829003601f168201915b5050505050905090565b600061073382611a97565b6004600083815260200190815260200160002060009054906101000a900473ffffffffffffffffffffffffffffffffffffffff169050919050565b600061077982610bf9565b90508073ffffffffffffffffffffffffffffffffffffffff168373ffffffffffffffffffffffffffffffffffffffff1614156107ea576040517f08c379a00000000000000000000000000000000000000000000000000000000081526004016107e190613a0d565b60405180910390fd5b8073ffffffffffffffffffffffffffffffffffffffff16610809611ae2565b73ffffffffffffffffffffffffffffffffffffffff161480610838575061083781610832611ae2565b611162565b5b610877576040517f08c379a000000000000000000000000000000000000000000000000000000000815260040161086e90613a9f565b60405180910390fd5b6108818383611aea565b505050565b610897610891611ae2565b82611ba3565b6108d6576040517f08c379a00000000000000000000000000000000000000000000000000000000081526004016108cd90613b31565b60405180910390fd5b6108e1838383611c38565b505050565b600c818051602081018201805184825260208301602085012081835280955050505050506000915054906101000a900473ffffffffffffffffffffffffffffffffffffffff1681565b6009805461093c90613969565b80601f016020809104026020016040519081016040528092919081815260200182805461096890613969565b80156109b55780601f1061098a576101008083540402835291602001916109b5565b820191906000526020600020905b81548152906001019060200180831161099857829003601f168201915b505050505081565b6109c5610d5e565b6109ce57600080fd5b600047905060003373ffffffffffffffffffffffffffffffffffffffff16826040516109f990613b82565b60006040518083038185875af1925050503d8060008114610a36576040519150601f19603f3d011682016040523d82523d6000602084013e610a3b565b606091505b5050905080610a7f576040517f08c379a0000000000000000000000000000000000000000000000000000000008152600401610a7690613be3565b60405180910390fd5b5050565b610a9e83838360405180602001604052806000815250610f12565b505050565b600e6020528060005260406000206000915090508054610ac290613969565b80601f0160208091040260200160405190810160405280929190818152602001828054610aee90613969565b8015610b3b5780601f10610b1057610100808354040283529160200191610b3b565b820191906000526020600020905b815481529060010190602001808311610b1e57829003601f168201915b505050505081565b600d818051602081018201805184825260208301602085012081835280955050505050506000915090508054610b7890613969565b80601f0160208091040260200160405190810160405280929190818152602001828054610ba490613969565b8015610bf15780601f10610bc657610100808354040283529160200191610bf1565b820191906000526020600020905b815481529060010190602001808311610bd457829003601f168201915b505050505081565b600080610c0583611f32565b9050600073ffffffffffffffffffffffffffffffffffffffff168173ffffffffffffffffffffffffffffffffffffffff161415610c77576040517f08c379a0000000000000000000000000000000000000000000000000000000008152600401610c6e90613c4f565b60405180910390fd5b80915050919050565b60008073ffffffffffffffffffffffffffffffffffffffff168273ffffffffffffffffffffffffffffffffffffffff161415610cf1576040517f08c379a0000000000000000000000000000000000000000000000000000000008152600401610ce890613ce1565b60405180910390fd5b600360008373ffffffffffffffffffffffffffffffffffffffff1673ffffffffffffffffffffffffffffffffffffffff168152602001908152602001600020549050919050565b600860009054906101000a900473ffffffffffffffffffffffffffffffffffffffff1681565b6000600860009054906101000a900473ffffffffffffffffffffffffffffffffffffffff1673ffffffffffffffffffffffffffffffffffffffff163373ffffffffffffffffffffffffffffffffffffffff1614905090565b606060018054610dc590613969565b80601f0160208091040260200160405190810160405280929190818152602001828054610df190613969565b8015610e3e5780601f10610e1357610100808354040283529160200191610e3e565b820191906000526020600020905b815481529060010190602001808311610e2157829003601f168201915b5050505050905090565b60006003610e9984848080601f016020809104026020016040519081016040528093929190818152602001838380828437600081840152601f19601f82011690508083019250505050505050611f6f565b10158015610ef45750600a610ef184848080601f016020809104026020016040519081016040528093929190818152602001838380828437600081840152601f19601f82011690508083019250505050505050611f6f565b11155b905092915050565b610f0e610f07611ae2565b8383612124565b5050565b610f23610f1d611ae2565b83611ba3565b610f62576040517f08c379a0000000000000000000000000000000000000000000000000000000008152600401610f5990613b31565b60405180910390fd5b610f6e84848484612291565b50505050565b600c8484604051610f86929190613d31565b908152602001604051809103902060009054906101000a900473ffffffffffffffffffffffffffffffffffffffff1673ffffffffffffffffffffffffffffffffffffffff163373ffffffffffffffffffffffffffffffffffffffff1614611019576040517f82b4290000000000000000000000000000000000000000000000000000000000815260040160405180910390fd5b8181600d868660405161102d929190613d31565b90815260200160405180910390209190611048929190612ecc565b5050505050565b606061105a82611a97565b600060066000848152602001908152602001600020805461107a90613969565b80601f01602080910402602001604051908101604052809291908181526020018280546110a690613969565b80156110f35780601f106110c8576101008083540402835291602001916110f3565b820191906000526020600020905b8154815290600101906020018083116110d657829003601f168201915b5050505050905060006111046122ed565b905060008151141561111a57819250505061115d565b60008251111561114f578082604051602001611137929190613d7b565b6040516020818303038152906040529250505061115d565b61115884612304565b925050505b919050565b6000600560008473ffffffffffffffffffffffffffffffffffffffff1673ffffffffffffffffffffffffffffffffffffffff16815260200190815260200160002060008373ffffffffffffffffffffffffffffffffffffffff1673ffffffffffffffffffffffffffffffffffffffff16815260200190815260200160002060009054906101000a900460ff16905092915050565b600073ffffffffffffffffffffffffffffffffffffffff16600c8383604051611220929190613d31565b908152602001604051809103902060009054906101000a900473ffffffffffffffffffffffffffffffffffffffff1673ffffffffffffffffffffffffffffffffffffffff161461129c576040517f3a81d6fc00000000000000000000000000000000000000000000000000000000815260040160405180910390fd5b6112a68282610e48565b6112e95781816040517f7f19f48d0000000000000000000000000000000000000000000000000000000081526004016112e0929190613dcc565b60405180910390fd5b60006112f58383611852565b90508034101561133a576040517f08c379a000000000000000000000000000000000000000000000000000000000815260040161133190613e3c565b60405180910390fd5b60008383600960405160200161135293929190613f3c565b60405160208183030381529060405290506000600a82600b60405160200161137c93929190613f6d565b60405160208183030381529060405290506000611399600761236c565b905060006113ea87878080601f016020809104026020016040519081016040528093929190818152602001838380828437600081840152601f19601f82011690508083019250505050505050611f6f565b905060006113f78261237a565b90506114eb60405180606001604052806031815260200161494a6031913989898080601f016020809104026020016040519081016040528093929190818152602001838380828437600081840152601f19601f820116905080830192505050505050506009805461146790613969565b80601f016020809104026020016040519081016040528092919081815260200182805461149390613969565b80156114e05780601f106114b5576101008083540402835291602001916114e0565b820191906000526020600020905b8154815290600101906020018083116114c357829003601f168201915b505050505086612452565b6000611521866114fa876124f4565b8460405160200161150d9392919061411a565b6040516020818303038152906040526124f4565b905060008160405160200161153691906141c3565b604051602081830303815290604052905061156860405180606001604052806039815260200161491160399139612658565b6115a76040518060400160405280600e81526020017f46696e616c20746f6b656e555249000000000000000000000000000000000000815250826118f8565b6115c860405180606001604052806039815260200161497b60399139612658565b6115d233866126f1565b6115dc858261270f565b33600c8b8b6040516115ef929190613d31565b908152602001604051809103902060006101000a81548173ffffffffffffffffffffffffffffffffffffffff021916908373ffffffffffffffffffffffffffffffffffffffff1602179055508989600e6000888152602001908152602001600020919061165d929190612ecc565b5061166860076127ba565b50505050505050505050565b60606116b46040518060400160405280601f81526020017f47657474696e6720616c6c206e616d65732066726f6d20636f6e747261637400815250612658565b60006116c0600761236c565b67ffffffffffffffff8111156116d9576116d8613307565b5b60405190808252806020026020018201604052801561170c57816020015b60608152602001906001900390816116f75790505b50905060005b61171c600761236c565b81101561184a57600e6000828152602001908152602001600020805461174190613969565b80601f016020809104026020016040519081016040528092919081815260200182805461176d90613969565b80156117ba5780601f1061178f576101008083540402835291602001916117ba565b820191906000526020600020905b81548152906001019060200180831161179d57829003601f168201915b50505050508282815181106117d2576117d16141e5565b5b60200260200101819052506118376040518060400160405280601781526020017f4e616d6520666f7220746f6b656e2025642069732025730000000000000000008152508284848151811061182a576118296141e5565b5b60200260200101516127d0565b808061184290614243565b915050611712565b508091505090565b6000806118a284848080601f016020809104026020016040519081016040528093929190818152602001838380828437600081840152601f19601f82011690508083019250505050505050611f6f565b9050600081116118b157600080fd5b60038114156118cb576706f05b59d3b200009150506118f2565b60048114156118e557670429d069189e00009150506118f2565b67016345785d8a00009150505b92915050565b611990828260405160240161190e92919061428c565b6040516020818303038152906040527f4b5c4277000000000000000000000000000000000000000000000000000000007bffffffffffffffffffffffffffffffffffffffffffffffffffffffff19166020820180517bffffffffffffffffffffffffffffffffffffffffffffffffffffffff838183161783525050505061286f565b5050565b60006a636f6e736f6c652e6c6f679050600080835160208501845afa505050565b60007f80ac58cd000000000000000000000000000000000000000000000000000000007bffffffffffffffffffffffffffffffffffffffffffffffffffffffff1916827bffffffffffffffffffffffffffffffffffffffffffffffffffffffff19161480611a8057507f5b5e139f000000000000000000000000000000000000000000000000000000007bffffffffffffffffffffffffffffffffffffffffffffffffffffffff1916827bffffffffffffffffffffffffffffffffffffffffffffffffffffffff1916145b80611a905750611a8f82612889565b5b9050919050565b611aa0816128f3565b611adf576040517f08c379a0000000000000000000000000000000000000000000000000000000008152600401611ad690613c4f565b60405180910390fd5b50565b600033905090565b816004600083815260200190815260200160002060006101000a81548173ffffffffffffffffffffffffffffffffffffffff021916908373ffffffffffffffffffffffffffffffffffffffff160217905550808273ffffffffffffffffffffffffffffffffffffffff16611b5d83610bf9565b73ffffffffffffffffffffffffffffffffffffffff167f8c5be1e5ebec7d5bd14f71427d1e84f3dd0314c0f7b2291e5b200ac8c7c3b92560405160405180910390a45050565b600080611baf83610bf9565b90508073ffffffffffffffffffffffffffffffffffffffff168473ffffffffffffffffffffffffffffffffffffffff161480611bf15750611bf08185611162565b5b80611c2f57508373ffffffffffffffffffffffffffffffffffffffff16611c1784610728565b73ffffffffffffffffffffffffffffffffffffffff16145b91505092915050565b8273ffffffffffffffffffffffffffffffffffffffff16611c5882610bf9565b73ffffffffffffffffffffffffffffffffffffffff1614611cae576040517f08c379a0000000000000000000000000000000000000000000000000000000008152600401611ca590614335565b60405180910390fd5b600073ffffffffffffffffffffffffffffffffffffffff168273ffffffffffffffffffffffffffffffffffffffff161415611d1e576040517f08c379a0000000000000000000000000000000000000000000000000000000008152600401611d15906143c7565b60405180910390fd5b611d2b8383836001612934565b8273ffffffffffffffffffffffffffffffffffffffff16611d4b82610bf9565b73ffffffffffffffffffffffffffffffffffffffff1614611da1576040517f08c379a0000000000000000000000000000000000000000000000000000000008152600401611d9890614335565b60405180910390fd5b6004600082815260200190815260200160002060006101000a81549073ffffffffffffffffffffffffffffffffffffffff02191690556001600360008573ffffffffffffffffffffffffffffffffffffffff1673ffffffffffffffffffffffffffffffffffffffff168152602001908152602001600020600082825403925050819055506001600360008473ffffffffffffffffffffffffffffffffffffffff1673ffffffffffffffffffffffffffffffffffffffff16815260200190815260200160002060008282540192505081905550816002600083815260200190815260200160002060006101000a81548173ffffffffffffffffffffffffffffffffffffffff021916908373ffffffffffffffffffffffffffffffffffffffff160217905550808273ffffffffffffffffffffffffffffffffffffffff168473ffffffffffffffffffffffffffffffffffffffff167fddf252ad1be2c89b69c2b068fc378daa952ba7f163c4a11628f55a4df523b3ef60405160405180910390a4611f2d838383600161293a565b505050565b60006002600083815260200190815260200160002060009054906101000a900473ffffffffffffffffffffffffffffffffffffffff169050919050565b60008060008084519050600092505b80821015612119576000858381518110611f9b57611f9a6141e5565b5b602001015160f81c60f81b9050608060f81b817effffffffffffffffffffffffffffffffffffffffffffffffffffffffffffff19161015611fea57600183611fe391906143e7565b9250612105565b60e060f81b817effffffffffffffffffffffffffffffffffffffffffffffffffffffffffffff1916101561202c5760028361202591906143e7565b9250612104565b60f060f81b817effffffffffffffffffffffffffffffffffffffffffffffffffffffffffffff1916101561206e5760038361206791906143e7565b9250612103565b60f8801b817effffffffffffffffffffffffffffffffffffffffffffffffffffffffffffff191610156120af576004836120a891906143e7565b9250612102565b60fc60f81b817effffffffffffffffffffffffffffffffffffffffffffffffffffffffffffff191610156120f1576005836120ea91906143e7565b9250612101565b6006836120fe91906143e7565b92505b5b5b5b5b50828061211190614243565b935050611f7e565b829350505050919050565b8173ffffffffffffffffffffffffffffffffffffffff168373ffffffffffffffffffffffffffffffffffffffff161415612193576040517f08c379a000000000000000000000000000000000000000000000000000000000815260040161218a90614489565b60405180910390fd5b80600560008573ffffffffffffffffffffffffffffffffffffffff1673ffffffffffffffffffffffffffffffffffffffff16815260200190815260200160002060008473ffffffffffffffffffffffffffffffffffffffff1673ffffffffffffffffffffffffffffffffffffffff16815260200190815260200160002060006101000a81548160ff0219169083151502179055508173ffffffffffffffffffffffffffffffffffffffff168373ffffffffffffffffffffffffffffffffffffffff167f17307eab39ab6107e8899845ad3d59bd9653f200f220920489ca2b5937696c318360405161228491906130a9565b60405180910390a3505050565b61229c848484611c38565b6122a884848484612940565b6122e7576040517f08c379a00000000000000000000000000000000000000000000000000000000081526004016122de9061451b565b60405180910390fd5b50505050565b606060405180602001604052806000815250905090565b606061230f82611a97565b60006123196122ed565b905060008151116123395760405180602001604052806000815250612364565b806123438461237a565b604051602001612354929190613d7b565b6040516020818303038152906040525b915050919050565b600081600001549050919050565b60606000600161238984612ac8565b01905060008167ffffffffffffffff8111156123a8576123a7613307565b5b6040519080825280601f01601f1916602001820160405280156123da5781602001600182028036833780820191505090505b509050600082602001820190505b600115612447578080600190039150507f3031323334353637383961626364656600000000000000000000000000000000600a86061a8153600a85816124315761243061453b565b5b049450600085141561244257612447565b6123e8565b819350505050919050565b6124ee8484848460405160240161246c949392919061456a565b6040516020818303038152906040527f8eafb02b000000000000000000000000000000000000000000000000000000007bffffffffffffffffffffffffffffffffffffffffffffffffffffffff19166020820180517bffffffffffffffffffffffffffffffffffffffffffffffffffffffff838183161783525050505061286f565b50505050565b606060008251141561251757604051806020016040528060008152509050612653565b60006040518060600160405280604081526020016149b4604091399050600060036002855161254691906143e7565b61255091906145c4565b600461255c91906145f5565b67ffffffffffffffff81111561257557612574613307565b5b6040519080825280601f01601f1916602001820160405280156125a75781602001600182028036833780820191505090505b509050600182016020820185865187015b80821015612613576003820191508151603f8160121c168501518453600184019350603f81600c1c168501518453600184019350603f8160061c168501518453600184019350603f81168501518453600184019350506125b8565b505060038651066001811461262f57600281146126425761264a565b603d6001830353603d600283035361264a565b603d60018303535b50505080925050505b919050565b6126ee8160405160240161266c919061315d565b6040516020818303038152906040527f41304fac000000000000000000000000000000000000000000000000000000007bffffffffffffffffffffffffffffffffffffffffffffffffffffffff19166020820180517bffffffffffffffffffffffffffffffffffffffffffffffffffffffff838183161783525050505061286f565b50565b61270b828260405180602001604052806000815250612c1b565b5050565b612718826128f3565b612757576040517f08c379a000000000000000000000000000000000000000000000000000000000815260040161274e906146c1565b60405180910390fd5b8060066000848152602001908152602001600020908051906020019061277e929190612f52565b507ff8e1a15aba9398e019f0b49df1a4fde98ee17ae345cb5f6b5e2c27f5033e8ce7826040516127ae91906134b7565b60405180910390a15050565b6001816000016000828254019250508190555050565b61286a8383836040516024016127e8939291906146e1565b6040516020818303038152906040527f5970e089000000000000000000000000000000000000000000000000000000007bffffffffffffffffffffffffffffffffffffffffffffffffffffffff19166020820180517bffffffffffffffffffffffffffffffffffffffffffffffffffffffff838183161783525050505061286f565b505050565b6128868161287e611994612c76565b63ffffffff16565b50565b60007f01ffc9a7000000000000000000000000000000000000000000000000000000007bffffffffffffffffffffffffffffffffffffffffffffffffffffffff1916827bffffffffffffffffffffffffffffffffffffffffffffffffffffffff1916149050919050565b60008073ffffffffffffffffffffffffffffffffffffffff1661291583611f32565b73ffffffffffffffffffffffffffffffffffffffff1614159050919050565b50505050565b50505050565b60006129618473ffffffffffffffffffffffffffffffffffffffff16612c81565b15612abb578373ffffffffffffffffffffffffffffffffffffffff1663150b7a0261298a611ae2565b8786866040518563ffffffff1660e01b81526004016129ac949392919061477b565b6020604051808303816000875af19250505080156129e857506040513d601f19601f820116820180604052508101906129e591906147dc565b60015b612a6b573d8060008114612a18576040519150601f19603f3d011682016040523d82523d6000602084013e612a1d565b606091505b50600081511415612a63576040517f08c379a0000000000000000000000000000000000000000000000000000000008152600401612a5a9061451b565b60405180910390fd5b805181602001fd5b63150b7a0260e01b7bffffffffffffffffffffffffffffffffffffffffffffffffffffffff1916817bffffffffffffffffffffffffffffffffffffffffffffffffffffffff191614915050612ac0565b600190505b949350505050565b600080600090507a184f03e93ff9f4daa797ed6e38ed64bf6a1f0100000000000000008310612b26577a184f03e93ff9f4daa797ed6e38ed64bf6a1f0100000000000000008381612b1c57612b1b61453b565b5b0492506040810190505b6d04ee2d6d415b85acef81000000008310612b63576d04ee2d6d415b85acef81000000008381612b5957612b5861453b565b5b0492506020810190505b662386f26fc100008310612b9257662386f26fc100008381612b8857612b8761453b565b5b0492506010810190505b6305f5e1008310612bbb576305f5e1008381612bb157612bb061453b565b5b0492506008810190505b6127108310612be0576127108381612bd657612bd561453b565b5b0492506004810190505b60648310612c035760648381612bf957612bf861453b565b5b0492506002810190505b600a8310612c12576001810190505b80915050919050565b612c258383612ca4565b612c326000848484612940565b612c71576040517f08c379a0000000000000000000000000000000000000000000000000000000008152600401612c689061451b565b60405180910390fd5b505050565b612ec2819050919050565b6000808273ffffffffffffffffffffffffffffffffffffffff163b119050919050565b600073ffffffffffffffffffffffffffffffffffffffff168273ffffffffffffffffffffffffffffffffffffffff161415612d14576040517f08c379a0000000000000000000000000000000000000000000000000000000008152600401612d0b90614855565b60405180910390fd5b612d1d816128f3565b15612d5d576040517f08c379a0000000000000000000000000000000000000000000000000000000008152600401612d54906148c1565b60405180910390fd5b612d6b600083836001612934565b612d74816128f3565b15612db4576040517f08c379a0000000000000000000000000000000000000000000000000000000008152600401612dab906148c1565b60405180910390fd5b6001600360008473ffffffffffffffffffffffffffffffffffffffff1673ffffffffffffffffffffffffffffffffffffffff16815260200190815260200160002060008282540192505081905550816002600083815260200190815260200160002060006101000a81548173ffffffffffffffffffffffffffffffffffffffff021916908373ffffffffffffffffffffffffffffffffffffffff160217905550808273ffffffffffffffffffffffffffffffffffffffff16600073ffffffffffffffffffffffffffffffffffffffff167fddf252ad1be2c89b69c2b068fc378daa952ba7f163c4a11628f55a4df523b3ef60405160405180910390a4612ebe60008383600161293a565b5050565b612eca6148e1565b565b828054612ed890613969565b90600052602060002090601f016020900481019282612efa5760008555612f41565b82601f10612f1357803560ff1916838001178555612f41565b82800160010185558215612f41579182015b82811115612f40578235825591602001919060010190612f25565b5b509050612f4e9190612fd8565b5090565b828054612f5e90613969565b90600052602060002090601f016020900481019282612f805760008555612fc7565b82601f10612f9957805160ff1916838001178555612fc7565b82800160010185558215612fc7579182015b82811115612fc6578251825591602001919060010190612fab565b5b509050612fd49190612fd8565b5090565b5b80821115612ff1576000816000905550600101612fd9565b5090565b6000604051905090565b600080fd5b600080fd5b60007fffffffff0000000000000000000000000000000000000000000000000000000082169050919050565b61303e81613009565b811461304957600080fd5b50565b60008135905061305b81613035565b92915050565b60006020828403121561307757613076612fff565b5b60006130858482850161304c565b91505092915050565b60008115159050919050565b6130a38161308e565b82525050565b60006020820190506130be600083018461309a565b92915050565b600081519050919050565b600082825260208201905092915050565b60005b838110156130fe5780820151818401526020810190506130e3565b8381111561310d576000848401525b50505050565b6000601f19601f8301169050919050565b600061312f826130c4565b61313981856130cf565b93506131498185602086016130e0565b61315281613113565b840191505092915050565b600060208201905081810360008301526131778184613124565b905092915050565b6000819050919050565b6131928161317f565b811461319d57600080fd5b50565b6000813590506131af81613189565b92915050565b6000602082840312156131cb576131ca612fff565b5b60006131d9848285016131a0565b91505092915050565b600073ffffffffffffffffffffffffffffffffffffffff82169050919050565b600061320d826131e2565b9050919050565b61321d81613202565b82525050565b60006020820190506132386000830184613214565b92915050565b61324781613202565b811461325257600080fd5b50565b6000813590506132648161323e565b92915050565b6000806040838503121561328157613280612fff565b5b600061328f85828601613255565b92505060206132a0858286016131a0565b9150509250929050565b6000806000606084860312156132c3576132c2612fff565b5b60006132d186828701613255565b93505060206132e286828701613255565b92505060406132f3868287016131a0565b9150509250925092565b600080fd5b600080fd5b7f4e487b7100000000000000000000000000000000000000000000000000000000600052604160045260246000fd5b61333f82613113565b810181811067ffffffffffffffff8211171561335e5761335d613307565b5b80604052505050565b6000613371612ff5565b905061337d8282613336565b919050565b600067ffffffffffffffff82111561339d5761339c613307565b5b6133a682613113565b9050602081019050919050565b82818337600083830152505050565b60006133d56133d084613382565b613367565b9050828152602081018484840111156133f1576133f0613302565b5b6133fc8482856133b3565b509392505050565b600082601f830112613419576134186132fd565b5b81356134298482602086016133c2565b91505092915050565b60006020828403121561344857613447612fff565b5b600082013567ffffffffffffffff81111561346657613465613004565b5b61347284828501613404565b91505092915050565b60006020828403121561349157613490612fff565b5b600061349f84828501613255565b91505092915050565b6134b18161317f565b82525050565b60006020820190506134cc60008301846134a8565b92915050565b60006134dd826131e2565b9050919050565b6134ed816134d2565b82525050565b600060208201905061350860008301846134e4565b92915050565b600080fd5b600080fd5b60008083601f84011261352e5761352d6132fd565b5b8235905067ffffffffffffffff81111561354b5761354a61350e565b5b60208301915083600182028301111561356757613566613513565b5b9250929050565b6000806020838503121561358557613584612fff565b5b600083013567ffffffffffffffff8111156135a3576135a2613004565b5b6135af85828601613518565b92509250509250929050565b6135c48161308e565b81146135cf57600080fd5b50565b6000813590506135e1816135bb565b92915050565b600080604083850312156135fe576135fd612fff565b5b600061360c85828601613255565b925050602061361d858286016135d2565b9150509250929050565b600067ffffffffffffffff82111561364257613641613307565b5b61364b82613113565b9050602081019050919050565b600061366b61366684613627565b613367565b90508281526020810184848401111561368757613686613302565b5b6136928482856133b3565b509392505050565b600082601f8301126136af576136ae6132fd565b5b81356136bf848260208601613658565b91505092915050565b600080600080608085870312156136e2576136e1612fff565b5b60006136f087828801613255565b945050602061370187828801613255565b9350506040613712878288016131a0565b925050606085013567ffffffffffffffff81111561373357613732613004565b5b61373f8782880161369a565b91505092959194509250565b6000806000806040858703121561376557613764612fff565b5b600085013567ffffffffffffffff81111561378357613782613004565b5b61378f87828801613518565b9450945050602085013567ffffffffffffffff8111156137b2576137b1613004565b5b6137be87828801613518565b925092505092959194509250565b600080604083850312156137e3576137e2612fff565b5b60006137f185828601613255565b925050602061380285828601613255565b9150509250929050565b600081519050919050565b600082825260208201905092915050565b6000819050602082019050919050565b600082825260208201905092915050565b6000613854826130c4565b61385e8185613838565b935061386e8185602086016130e0565b61387781613113565b840191505092915050565b600061388e8383613849565b905092915050565b6000602082019050919050565b60006138ae8261380c565b6138b88185613817565b9350836020820285016138ca85613828565b8060005b8581101561390657848403895281516138e78582613882565b94506138f283613896565b925060208a019950506001810190506138ce565b50829750879550505050505092915050565b6000602082019050818103600083015261393281846138a3565b905092915050565b7f4e487b7100000000000000000000000000000000000000000000000000000000600052602260045260246000fd5b6000600282049050600182168061398157607f821691505b602082108114156139955761399461393a565b5b50919050565b7f4552433732313a20617070726f76616c20746f2063757272656e74206f776e6560008201527f7200000000000000000000000000000000000000000000000000000000000000602082015250565b60006139f76021836130cf565b9150613a028261399b565b604082019050919050565b60006020820190508181036000830152613a26816139ea565b9050919050565b7f4552433732313a20617070726f76652063616c6c6572206973206e6f7420746f60008201527f6b656e206f776e6572206f7220617070726f76656420666f7220616c6c000000602082015250565b6000613a89603d836130cf565b9150613a9482613a2d565b604082019050919050565b60006020820190508181036000830152613ab881613a7c565b9050919050565b7f4552433732313a2063616c6c6572206973206e6f7420746f6b656e206f776e6560008201527f72206f7220617070726f76656400000000000000000000000000000000000000602082015250565b6000613b1b602d836130cf565b9150613b2682613abf565b604082019050919050565b60006020820190508181036000830152613b4a81613b0e565b9050919050565b600081905092915050565b50565b6000613b6c600083613b51565b9150613b7782613b5c565b600082019050919050565b6000613b8d82613b5f565b9150819050919050565b7f4661696c656420746f207769746864726177204d617469630000000000000000600082015250565b6000613bcd6018836130cf565b9150613bd882613b97565b602082019050919050565b60006020820190508181036000830152613bfc81613bc0565b9050919050565b7f4552433732313a20696e76616c696420746f6b656e2049440000000000000000600082015250565b6000613c396018836130cf565b9150613c4482613c03565b602082019050919050565b60006020820190508181036000830152613c6881613c2c565b9050919050565b7f4552433732313a2061646472657373207a65726f206973206e6f74206120766160008201527f6c6964206f776e65720000000000000000000000000000000000000000000000602082015250565b6000613ccb6029836130cf565b9150613cd682613c6f565b604082019050919050565b60006020820190508181036000830152613cfa81613cbe565b9050919050565b600081905092915050565b6000613d188385613d01565b9350613d258385846133b3565b82840190509392505050565b6000613d3e828486613d0c565b91508190509392505050565b6000613d55826130c4565b613d5f8185613d01565b9350613d6f8185602086016130e0565b80840191505092915050565b6000613d878285613d4a565b9150613d938284613d4a565b91508190509392505050565b6000613dab83856130cf565b9350613db88385846133b3565b613dc183613113565b840190509392505050565b60006020820190508181036000830152613de7818486613d9f565b90509392505050565b7f4e6f7420656e6f756768204d6174696320706169640000000000000000000000600082015250565b6000613e266015836130cf565b9150613e3182613df0565b602082019050919050565b60006020820190508181036000830152613e5581613e19565b9050919050565b7f2e00000000000000000000000000000000000000000000000000000000000000600082015250565b6000613e92600183613d01565b9150613e9d82613e5c565b600182019050919050565b60008190508160005260206000209050919050565b60008154613eca81613969565b613ed48186613d01565b94506001821660008114613eef5760018114613f0057613f33565b60ff19831686528186019350613f33565b613f0985613ea8565b60005b83811015613f2b57815481890152600182019150602081019050613f0c565b838801955050505b50505092915050565b6000613f49828587613d0c565b9150613f5482613e85565b9150613f608284613ebd565b9150819050949350505050565b6000613f798286613ebd565b9150613f858285613d4a565b9150613f918284613ebd565b9150819050949350505050565b7f7b226e616d65223a202200000000000000000000000000000000000000000000600082015250565b6000613fd4600a83613d01565b9150613fdf82613f9e565b600a82019050919050565b7f222c20226465736372697074696f6e223a20224120646f6d61696e206f6e207460008201527f68652046756e6b206e616d652073657276696365222c2022696d616765223a2060208201527f22646174613a696d6167652f7376672b786d6c3b6261736536342c0000000000604082015250565b600061406c605b83613d01565b915061407782613fea565b605b82019050919050565b7f222c20226c656e677468223a2022000000000000000000000000000000000000600082015250565b60006140b8600e83613d01565b91506140c382614082565b600e82019050919050565b7f227d000000000000000000000000000000000000000000000000000000000000600082015250565b6000614104600283613d01565b915061410f826140ce565b600282019050919050565b600061412582613fc7565b91506141318286613d4a565b915061413c8261405f565b91506141488285613d4a565b9150614153826140ab565b915061415f8284613d4a565b915061416a826140f7565b9150819050949350505050565b7f646174613a6170706c69636174696f6e2f6a736f6e3b6261736536342c000000600082015250565b60006141ad601d83613d01565b91506141b882614177565b601d82019050919050565b60006141ce826141a0565b91506141da8284613d4a565b915081905092915050565b7f4e487b7100000000000000000000000000000000000000000000000000000000600052603260045260246000fd5b7f4e487b7100000000000000000000000000000000000000000000000000000000600052601160045260246000fd5b600061424e8261317f565b91507fffffffffffffffffffffffffffffffffffffffffffffffffffffffffffffffff82141561428157614280614214565b5b600182019050919050565b600060408201905081810360008301526142a68185613124565b905081810360208301526142ba8184613124565b90509392505050565b7f4552433732313a207472616e736665722066726f6d20696e636f72726563742060008201527f6f776e6572000000000000000000000000000000000000000000000000000000602082015250565b600061431f6025836130cf565b915061432a826142c3565b604082019050919050565b6000602082019050818103600083015261434e81614312565b9050919050565b7f4552433732313a207472616e7366657220746f20746865207a65726f2061646460008201527f7265737300000000000000000000000000000000000000000000000000000000602082015250565b60006143b16024836130cf565b91506143bc82614355565b604082019050919050565b600060208201905081810360008301526143e0816143a4565b9050919050565b60006143f28261317f565b91506143fd8361317f565b9250827fffffffffffffffffffffffffffffffffffffffffffffffffffffffffffffffff0382111561443257614431614214565b5b828201905092915050565b7f4552433732313a20617070726f766520746f2063616c6c657200000000000000600082015250565b60006144736019836130cf565b915061447e8261443d565b602082019050919050565b600060208201905081810360008301526144a281614466565b9050919050565b7f4552433732313a207472616e7366657220746f206e6f6e20455243373231526560008201527f63656976657220696d706c656d656e7465720000000000000000000000000000602082015250565b60006145056032836130cf565b9150614510826144a9565b604082019050919050565b60006020820190508181036000830152614534816144f8565b9050919050565b7f4e487b7100000000000000000000000000000000000000000000000000000000600052601260045260246000fd5b600060808201905081810360008301526145848187613124565b905081810360208301526145988186613124565b905081810360408301526145ac8185613124565b90506145bb60608301846134a8565b95945050505050565b60006145cf8261317f565b91506145da8361317f565b9250826145ea576145e961453b565b5b828204905092915050565b60006146008261317f565b915061460b8361317f565b9250817fffffffffffffffffffffffffffffffffffffffffffffffffffffffffffffffff048311821515161561464457614643614214565b5b828202905092915050565b7f45524337323155524953746f726167653a2055524920736574206f66206e6f6e60008201527f6578697374656e7420746f6b656e000000000000000000000000000000000000602082015250565b60006146ab602e836130cf565b91506146b68261464f565b604082019050919050565b600060208201905081810360008301526146da8161469e565b9050919050565b600060608201905081810360008301526146fb8186613124565b905061470a60208301856134a8565b818103604083015261471c8184613124565b9050949350505050565b600081519050919050565b600082825260208201905092915050565b600061474d82614726565b6147578185614731565b93506147678185602086016130e0565b61477081613113565b840191505092915050565b60006080820190506147906000830187613214565b61479d6020830186613214565b6147aa60408301856134a8565b81810360608301526147bc8184614742565b905095945050505050565b6000815190506147d681613035565b92915050565b6000602082840312156147f2576147f1612fff565b5b6000614800848285016147c7565b91505092915050565b7f4552433732313a206d696e7420746f20746865207a65726f2061646472657373600082015250565b600061483f6020836130cf565b915061484a82614809565b602082019050919050565b6000602082019050818103600083015261486e81614832565b9050919050565b7f4552433732313a20746f6b656e20616c7265616479206d696e74656400000000600082015250565b60006148ab601c836130cf565b91506148b682614875565b602082019050919050565b600060208201905081810360008301526148da8161489e565b9050919050565b7f4e487b7100000000000000000000000000000000000000000000000000000000600052605160045260246000fdfe0a2d2d2d2d2d2d2d2d2d2d2d2d2d2d2d2d2d2d2d2d2d2d2d2d2d2d2d2d2d2d2d2d2d2d2d2d2d2d2d2d2d2d2d2d2d2d2d2d2d2d2d2d2d2d2d2d5265676973746572696e672025732e2573206f6e2074686520636f6e7472616374207769746820746f6b656e49442025642d2d2d2d2d2d2d2d2d2d2d2d2d2d2d2d2d2d2d2d2d2d2d2d2d2d2d2d2d2d2d2d2d2d2d2d2d2d2d2d2d2d2d2d2d2d2d2d2d2d2d2d2d2d2d2d0a4142434445464748494a4b4c4d4e4f505152535455565758595a6162636465666768696a6b6c6d6e6f707172737475767778797a303132333435363738392b2fa26469706673582212202f738fce4a3eb72dee860a31beafcb020c7fd94355a129036a6a4ea3f15ccea764736f6c634300080a00333c73766720786d6c6e733d22687474703a2f2f7777772e77332e6f72672f323030302f737667222077696474683d2232373022206865696768743d22323730222066696c6c3d226e6f6e65223e3c706174682066696c6c3d2275726c282342292220643d224d302030683237307632373048307a222f3e3c646566733e3c66696c7465722069643d22412220636f6c6f722d696e746572706f6c6174696f6e2d66696c746572733d2273524742222066696c746572556e6974733d227573657253706163654f6e55736522206865696768743d22323730222077696474683d22323730223e3c666544726f70536861646f772064783d2230222064793d22312220737464446576696174696f6e3d22322220666c6f6f642d6f7061636974793d222e323235222077696474683d223230302522206865696768743d2232303025222f3e3c2f66696c7465723e3c2f646566733e3c7061746820643d224d37322e3836332034322e393439632d2e3636382d2e3338372d312e3432362d2e35392d322e3139372d2e3539732d312e3532392e3230342d322e3139372e35396c2d31302e30383120362e3033322d362e383520332e3933342d31302e30383120362e303332632d2e3636382e3338372d312e3432362e35392d322e3139372e3539732d312e3532392d2e3230342d322e3139372d2e35396c2d382e3031332d342e37323161342e353220342e35322030203020312d312e3538392d312e363136632d2e3338342d2e3636352d2e3539342d312e3431382d2e3630382d322e313837762d392e3331632d2e3031332d2e3737352e3138352d312e3533382e3537322d322e32303861342e323520342e323520302030203120312e3632352d312e3539356c372e3838342d342e3539632e3636382d2e33383720312e3432362d2e353920322e3139372d2e353973312e3532392e32303420322e3139372e35396c372e38383420342e353961342e353220342e353220302030203120312e35383920312e363136632e3338342e3636352e35393420312e3431382e36303820322e31383776362e3033326c362e38352d342e303635762d362e303332632e3031332d2e3737352d2e3138352d312e3533382d2e3537322d322e32303861342e323520342e32352030203020302d312e3632352d312e3539354c34312e3435362032342e3539632d2e3636382d2e3338372d312e3432362d2e35392d322e3139372d2e3539732d312e3532392e3230342d322e3139372e35396c2d31342e38363420382e36353561342e323520342e32352030203020302d312e36323520312e353935632d2e3338372e36372d2e35383520312e3433342d2e35373220322e3230387631372e343431632d2e3031332e3737352e31383520312e3533382e35373220322e32303861342e323520342e323520302030203020312e36323520312e3539356c31342e38363420382e363535632e3636382e33383720312e3432362e353920322e3139372e353973312e3532392d2e32303420322e3139372d2e35396c31302e3038312d352e39303120362e38352d342e3036352031302e3038312d352e393031632e3636382d2e33383720312e3432362d2e353920322e3139372d2e353973312e3532392e32303420322e3139372e35396c372e38383420342e353961342e353220342e353220302030203120312e35383920312e363136632e3338342e3636352e35393420312e3431382e36303820322e31383776392e333131632e3031332e3737352d2e31383520312e3533382d2e35373220322e32303861342e323520342e32352030203020312d312e36323520312e3539356c2d372e38383420342e373231632d2e3636382e3338372d312e3432362e35392d322e3139372e3539732d312e3532392d2e3230342d322e3139372d2e35396c2d372e3838342d342e353961342e353220342e35322030203020312d312e3538392d312e363136632d2e3338352d2e3636352d2e3539342d312e3431382d2e3630382d322e313837762d362e3033326c2d362e383520342e30363576362e303332632d2e3031332e3737352e31383520312e3533382e35373220322e32303861342e323520342e323520302030203020312e36323520312e3539356c31342e38363420382e363535632e3636382e33383720312e3432362e353920322e3139372e353973312e3532392d2e32303420322e3139372d2e35396c31342e3836342d382e363535632e3635372d2e33393420312e3230342d2e393520312e3538392d312e363136732e3539342d312e3431382e3630392d322e3138375635352e353338632e3031332d2e3737352d2e3138352d312e3533382d2e3537322d322e32303861342e323520342e32352030203020302d312e3632352d312e3539356c2d31342e3939332d382e3738367a222066696c6c3d2223666666222f3e3c646566733e3c6c696e6561724772616469656e742069643d2242222078313d2230222079313d2230222078323d22323730222079323d2232373022206772616469656e74556e6974733d227573657253706163654f6e557365223e3c73746f702073746f702d636f6c6f723d2223636235656565222f3e3c73746f70206f66667365743d2231222073746f702d636f6c6f723d2223306364376534222073746f702d6f7061636974793d222e3939222f3e3c2f6c696e6561724772616469656e743e3c2f646566733e3c7465787420783d2233322e352220793d223233312220666f6e742d73697a653d223237222066696c6c3d2223666666222066696c7465723d2275726c282341292220666f6e742d66616d696c793d22506c7573204a616b617274612053616e732c44656a6156752053616e732c4e6f746f20436f6c6f7220456d6f6a692c4170706c6520436f6c6f7220456d6f6a692c73616e732d73657269662220666f6e742d7765696768743d22626f6c64223e",
  "linkReferences": {},
  "deployedLinkReferences": {}
}